:04000000D4EF08F041
:100800000020505A454D2D303034542D3130304178
:1008100020004572726F2064652043524300416C92
:1008200061726D653A20004650203D200045203D14
:10083000200049203D200056203D200066203D201C
:100840000053494D004E414F002057680020487A20
:100850000020560020570000938293809484000E5D
:100860006D6E6F86030E936EAAEC08F032EC09F001
:1008700017EC09F0010E046E010E10EC08F0010EE9
:10088000046E080E056EF1EC08F081A24AEF04F048
:100890004CEF04F045EF04F0000E316E000E326EA6
:1008A000000E336E000E346E000E356E000E366E86
:1008B000000E376E000E386E000E396E000E3A6E66
:1008C000000E3B6E000E3C6E000E406E000E3F6E42
:1008D000000E426E000E416E000E446E000E436E1E
:1008E0008EEC07F0000E456E600E4524D96EDA6A74
:1008F000000EDA221A0E4524E16EE26A000EE222B0
:10090000DFCFE7FF452A160E456489EF04F08BEF31
:1009100004F074EF04F01A0E016E000E026EF1EC9A
:1009200006F0525000017719D8A499EF04F09BEF1C
:1009300004F04CEF06F078515318D8A4A2EF04F05D
:10094000A4EF04F04CEF06F06A5169C014F0156A88
:1009500014C015F0146A14103D6E15503E6E6551AA
:10096000156E146A67516811166E176A14501610C6
:10097000186E15501710196E66511812000E1912C4
:1009800018C031F019C032F0000E32BEFF0E336EC7
:10099000346E6951156E146A6B516C11166E176ABC
:1009A00014501610186E15501710196E6A5118123F
:1009B000000E191218C035F019C036F0000E36BE00
:1009C000FF0E376E386E6D51156E146A6F517011CF
:1009D000166E176A14501610186E15501710196EEF
:1009E0006E511812000E191218C039F019C03AF0E1
:1009F000000E3ABEFF0E3B6E3C6E725171C014F099
:100A0000156A14C015F0146A14103F6E1550406E2C
:100A1000745173C014F0156A14C015F0146A1410E0
:100A2000416E1550426E765175C014F0156A14C0AF
:100A300015F0146A1410436E1550446E010E046EC6
:100A4000020E10EC08F0370E046E080E056EF1EC85
:100A500008F03DC00DF03EC00EF056EC06F0510E11
:100A6000046E080E056EF1EC08F0000E456E820E65
:100A7000146EDE0EE82EFED7142EFCD7452A040E87
:100A8000456445EF05F047EF05F037EF05F0010E3F
:100A9000046E020E10EC08F0320E046E080E056EA5
:100AA000F1EC08F031C00DF032C00EF056EC06F05B
:100AB000510E046E080E056EF1EC08F0000E456E46
:100AC000820E146EDE0EE82EFED7142EFCD7452AB9
:100AD000040E45646EEF05F070EF05F060EF05F071
:100AE000010E046E020E10EC08F0280E046E080EC3
:100AF000056EF1EC08F035C00DF036C00EF056EC86
:100B000006F0540E046E080E056EF1EC08F0000EAF
:100B1000456E820E146EDE0EE82EFED7142EFCD724
:100B2000452A040E456497EF05F099EF05F089EF2B
:100B300005F0010E046E020E10EC08F02D0E046E8E
:100B4000080E056EF1EC08F039C00DF03AC00EF059
:100B500056EC06F0490E046E080E056EF1EC08F036
:100B6000000E456E820E146EDE0EE82EFED7142E99
:100B7000FCD7452A040E4564C0EF05F0C2EF05F02E
:100B8000B2EF05F0010E046E020E10EC08F03C0E00
:100B9000046E080E056EF1EC08F03FC00DF040C089
:100BA0000EF056EC06F04D0E046E080E056EF1ECDC
:100BB00008F0000E456E820E146EDE0EE82EFED793
:100BC000142EFCD7452A040E4564E9EF05F0EBEF3F
:100BD00005F0DBEF05F0010E046E020E10EC08F0DC
:100BE000270E046E080E056EF1EC08F041C00DF002
:100BF00042C00EF056EC06F0000E456E820E146EEA
:100C0000DE0EE82EFED7142EFCD7452A040E4564CE
:100C10000CEF06F00EEF06F0FEEF05F0010E046E8D
:100C2000020E10EC08F01E0E046E080E056EF1ECBC
:100C300008F0432806E14428D8A421EF06F023EF6A
:100C400006F029EF06F0410E046E080E056EF1EC79
:100C500008F043504410D8A430EF06F032EF06F00D
:100C600038EF06F0450E046E080E056EF1EC08F044
:100C7000000E456E820E146EDE0EE82EFED7142E88
:100C8000FCD7452A040E456448EF06F04AEF06F00B
:100C90003AEF06F045EF04F0120E046E080E056EF2
:100CA000F1EC08F045EF04F000EF00F0100E0D5CE1
:100CB000270E0E58D8A05FEF06F061EF06F071EF37
:100CC00006F00DC001F00EC002F0270E046E100EEB
:100CD000036ED6EC07F00150300F0F6E0F507BEC17
:100CE00008F0E80E0D5C030E0E58D8A07AEF06F05F
:100CF0007CEF06F096EF06F0030E046EE80E036E2E
:100D00000DC001F00EC002F0D6EC07F001C008F0F3
:100D100002C009F0000E0B6E0A0E0A6E49EC08F0D4
:100D20000850300F0F6E0F507BEC08F00E5009E1A9
:100D3000640E0D5CD8A09FEF06F0A1EF06F0BBEFAC
:100D400006F0000E046E640E036E0DC001F00EC0BE
:100D500002F0D6EC07F001C008F002C009F0000E66
:100D60000B6E0A0E0A6E49EC08F00850300F0F6E39
:100D70000F507BEC08F00E5009E10A0E0D5CD8A074
:100D8000C4EF06F0C6EF06F0E0EF06F0000E046ECA
:100D90000A0E036E0DC001F00EC002F0D6EC07F093
:100DA00001C008F002C009F0000E0B6E0A0E0A6EB8
:100DB00049EC08F00850300F0F6E0F507BEC08F034
:100DC0000DC008F00EC009F0000E0B6E0A0E0A6E80
:100DD00049EC08F00850300F0F6E0F507BEC08F014
:100DE0001200FF0E096EFF0E0A6E000E0B6E000E53
:100DF0000C6E000E076E01C0D9FF02C0DAFFDF5093
:100E0000036E0350091A014A022A000E086E09B047
:100E10000CEF07F00EEF07F015EF07F00C340C3273
:100E20000B320A3209322EEF07F009C003F00AC074
:100E300004F00BC005F00CC006F006340632053293
:100E400004320332010E0318096EA00E04180A6E54
:100E5000000E05180B6E000E06180C6E082A070E01
:100E6000086435EF07F037EF07F007EF07F0072AC0
:100E7000010E07643EEF07F040EF07F0FBEF06F0CE
:100E800009C052F00AC053F01200036E000E026E49
:100E90000250D8B44EEF07F050EF07F05BEF07F0C9
:100EA00003C001F0013AF00E011681500F0B011042
:100EB000816E5FEF07F081500F0B0310816E8194FC
:100EC0008186100EE82EFED700D08196022A010EF0
:100ED00002646DEF07F06FEF07F048EF07F00304CF
:100EE000D8B475EF07F077EF07F080EF07F0020E48
:100EF0000318D8A47EEF07F080EF07F089EF07F022
:100F0000030E016E980EE82EFED7012EFCD78DEF52
:100F100007F0100EE82EFED700D01200000E136E60
:100F200020EE46F010EE0DF0050EDBCFE3FFE806F5
:100F3000FCE20D0E016E000E026EF1EC06F0000EEA
:100F40000CEC09F0040E0CEC09F0000E0CEC09F0AE
:100F5000000E0CEC09F0000E0CEC09F00A0E0CEC83
:100F600009F052500CEC09F053500CEC09F0CDEFA5
:100F700007F022EC09F0E806D8A4C1EF07F0C3EFB0
:100F800007F0CDEF07F0600E1324D96EDA6A000E79
:100F9000DA2236EC09F0DF6E132A180E1364D3EF51
:100FA00007F0D5EF07F0B9EF07F01200000E066E5C
:100FB000000E056E03500410D8B4E1EF07F0E3EF24
:100FC00007F00BEF08F0010E076EEBEF07F0D8907B
:100FD00003360436072A04AEF0EF07F0F2EF07F00D
:100FE000E7EF07F0D890053606360350015C045051
:100FF0000258D8A0FEEF07F000EF08F005EF08F068
:101000000350015E0450025A0580D8900432033226
:10101000072EF2EF07F005C001F006C002F0120043
:10102000076E040628EF08F00450800F086E45EFA5
:1010300008F00450C00F086E45EF08F00450940FFC
:10104000086E45EF08F00450D40F086E45EF08F025
:101050000750056E066A0650000AD8B432EF08F051
:1010600045EF08F00550010AD8B414EF08F0030A60
:10107000D8B419EF08F0010AD8B41EEF08F0070A37
:10108000D8B423EF08F045EF08F0085045EC07F01E
:1010900012000A500B10D8B450EF08F052EF08F0CD
:1010A00076EF08F0010E0C6E5AEF08F0D8900A3671
:1010B0000B360C2A0BAE5FEF08F061EF08F056EF2D
:1010C00008F00A50085C0B500958D8A06AEF08F0E5
:1010D0006CEF08F070EF08F00A50085E0B50095AE8
:1010E000D8900B320A320C2E61EF08F008C008F0DD
:1010F00009C009F01200026E000E036E0350D8B44E
:1011000084EF08F086EF08F091EF08F002C001F0DC
:10111000013AF00E011681500F0B0110816E95EF10
:1011200008F081500F0B0210816E81848186100EB1
:10113000E82EFED700D08196032A010E0364A3EFA8
:1011400008F0A5EF08F07EEF08F0100EE82EFED7AD
:1011500000D0120020EE4CF010EE05F0050EDBCFB3
:10116000E3FFE806FCE281500F0B816E81948196CB
:10117000140E046E7A0EE82EFED7042EFCD7000E55
:101180000B6E050E0B24D96EDA6A000EDA22DF50E0
:1011900045EC07F00B2A050E0B64D1EF08F0D3EFF6
:1011A00008F0C1EF08F01200580EF66E120EF76E3E
:1011B000000EF86E00EE46F010EE0CF00900F5CFD0
:1011C000EEFFE550E150FAE100EE60F0190EEE6A34
:1011D000E806FDE1536A526A000EF86E00012CEF3A
:1011E00004F0FDEF08F004C0F6FF05C0F7FF0800AB
:1011F000F5507BEC08F0044A052A04C0F6FF05C050
:10120000F7FF0800F5500009D8A409EF09F00BEF2B
:1012100009F0F3EF08F01200016E01C0ADFFACA2BF
:1012200014EF09F016EF09F00FEF09F01200948E99
:10123000948C200EAC6E900EAB6E400EB86E1F0EEE
:10124000AF6E12009EBA27EF09F02AEF09F0010EE7
:101250002BEF09F0000E120000040000000A3332E8
:10126000280C0601010E45EC07F01200AE501200EA
:020000040020DA
:08000000FFFFFFFFFFFFFFFF00
:020000040030CA
:0E000000000C0000FF8181FF0FC00FE00F40D9
:00000001FF
